:1000000041C07FC058C057C056C055C054C053C02F
:1000100052C051C050C04FC04EC04DC04CC04BC06C
:100020004AC049C048C000CDD914F13C28E5A16CB4
:1000300078B5509D89441E0355005300420074005A
:1000400069006E0079002000490052002F004C002A
:10005000430044000403090412010101FF000008E9
:10006000EB03020004010002000109021900010172
:100070000080280904000001FF000000070581003E
:100080000800000011241FBECFEDCDBF10E0A0E698
:10009000B0E0ECEBF5E002C005900D92A236B1079E
:1000A000D9F710E0A2E6B0E001C01D92AE38B1076A
:1000B000E1F75CD281C2A4CFDC019FEF8FEF46E273
:1000C000F0E018C02D918227E82FEF70E40F3591F2
:1000D000E82FE295892F932F3170E327EF709295E7
:1000E000392F9F70307E8327E40F3591932731702D
:1000F000932783276A9532F7809590958D939D93EA
:1001000008950F931F932F93DF93CF930FB70F9300
:100110008299FECF82990BC0829909C0829907C04B
:10012000829905C0829903C000E40ABFACC0C091A7
:100130007600DD27C958DF4F0BE014E124E0829BF5
:10014000E9CF3F934F936F9360B330E803C060B340
:10015000432B4993442764712627215020B32471EF
:10016000A9F137953C3FA0F56227615060B36471F7
:1001700037953C3F98F526272150379520B32471B9
:100180003C3F90F56227615037953C3F60B3647106
:10019000A0F52627215037953C3FC8F520B32471A0
:1001A0006227615037953C3FB0F50A9560B37AF00D
:1001B00064712627215037953C3F88F520B3247180
:1001C0006227615037953C3F10F22DC031C052C0BC
:1001D000612720B324713F774160C6CF3F774260EB
:1001E00060B364712127C7CF3F774460612720B394
:1001F0002471622761503795C8CF3F774860212727
:10020000316060B36471262721503795C6CF3F77A0
:1002100040616127C1CF3F7740622127C4CF3F773C
:1002200040646127C9CF3F774068212700C08FCF46
:1002300030E43ABF0B500195C01BD040288121FD0E
:100240002DC019811F7740918D00141799F429361C
:1002500091F4009167000023F1F040917500442370
:10026000D1F4409367004091730040938D00C8E63D
:10027000D0E02BC02227209362006F914F913F91D5
:100280000AB706FD45CF0F910FBFCF91DF912F9198
:100290001F910F911895C0E6D0E016C0217059F358
:1002A00020916200222339F340917500442399F78D
:1002B0000093750020937400009176004BE0401B82
:1002C00040937600C1E6D0E001E022B32B7E2061AE
:1002D00011B3146122BB11BB14E130E830FF2127B8
:1002E00022BB379547954C3FC0F530FF2127379506
:1002F00022BB47954C3FA8F530FF212737950000DA
:1003000022BB47954C3F78F530FF212737950000F9
:1003100022BB47954C3F48F530FF2127699122BB0E
:10032000379547954C3F18F530FF2127379522BB6D
:1003300047954C3F00F530FF21273795479522BB65
:100340004C3FD8F430FF21273795362F479522BBF5
:100350004C3FA8F40A9512F614C02127442722BB6B
:10036000C2CF2127C5CF2127CBCF2127D1CF21270E
:10037000442722BBD7CF2127DACF2127DFCF212760
:10038000E5CF2B7E22BB6F914F913F9100E40ABFD6
:10039000DF91CF9111B3022F206122BB1B7EDFBF03
:1003A000DF912F91000011BB02BB1F910F91189597
:1003B00085B7836085BF8BB780648BBF78940895C1
:1003C0001F93CF93DF9360917500662309F46FC08C
:1003D00080917600CCE0D0E0C81BD109C958DF4F2E
:1003E00081E080936300809174008D3209F051C0E8
:1003F0001E818F8181111FEF8881807649F5898167
:10040000811104C01882198282E03BC0853021F43A
:100410008A818093730034C0863081F482E08093B7
:1004200063008B818130E1F08230F1F0833041F55F
:100430008A818823E9F08230F9F022C0883019F4EB
:1004400081E088831EC08A30D9F4188281E019C007
:10045000CE0191D08F3FA9F483E08093630013C055
:1004600082E1C8E5D0E00DC089E1CAE6D0E009C06C
:1004700084E0C4E5D0E005C08EE1C6E3D0E001C071
:1004800080E0811708F0812FD0936500C09364004D
:1004900005C0635011F0CE0188D080E080936600E3
:1004A00083EC809368001092670010927500809131
:1004B000670081114CC080916300882309F447C014
:1004C0009091680028E89227909368001091660048
:1004D000193018F4112379F101C018E0833031F498
:1004E000612F89E690E057D0182F20C0E09164007A
:1004F000F0916500813061F4EF01A9E6B0E09A2F38
:1005000089918D93FE018A2F891B8117C8F30AC038
:10051000A9E6B0E08A2F949131969D939A2F981B6B
:100520009117C8F3F0936500E09364008091660032
:10053000811B80936600612F89E690E0BDDD812FED
:100540008D5F80936700183010F4109263008AE08A
:1005500002C0815019F0849BFCCF04C0109273003C
:1005600010928D00DF91CF911F9108958FEF87BB7F
:100570001FDF26DFFECFFC018181882331F082302E
:1005800031F0833031F418BA04C088E008958FEF59
:10059000089580E00895FC012181223021F428B3E0
:1005A000208381E0089580E00895FC0121812130BD
:0C05B00011F4808188BB0895F894FFCFFF
:0205BC005AD211
:00000001FF
