:1000000012C02BC029C028C027C026C025C024C0CC
:1000100023C022C021C020C01FC01EC01DC01CC0E4
:100020001BC01AC019C011241FBECFEDCDBF10E0F8
:10003000A0E6B0E0EAE2F3E002C005900D92A2363D
:10004000B107D9F710E0A2E6B0E001C01D92AA38CE
:10005000B107E1F761D167C1D3CF0F931F932F93FE
:10006000DF93CF930FB70F938299FECF82990BC086
:10007000829909C0829907C0829905C0829903C0FC
:1000800000E40ABFACC0C0917200DD27CD58DF4F3D
:100090000BE014E124E0829BE9CF3F934F936F93F1
:1000A00060B330E803C060B3432B499344276471C5
:1000B0002627215020B32471A9F137953C3FA0F5A4
:1000C0006227615060B3647137953C3F98F52627ED
:1000D0002150379520B324713C3F90F56227615041
:1000E00037953C3F60B36471A0F5262721503795C2
:1000F0003C3FC8F520B324716227615037953C3FDF
:10010000B0F50A9560B37AF06471262721503795CF
:100110003C3F88F520B324716227615037953C3FFE
:1001200010F22DC031C052C0612720B324713F7737
:100130004160C6CF3F77426060B364712127C7CF6B
:100140003F774460612720B324716227615037955F
:10015000C8CF3F7748602127316060B3647126279C
:1001600021503795C6CF3F7740616127C1CF3F7798
:1001700040622127C4CF3F7740646127C9CF3F77D2
:100180004068212700C08FCF30E43ABF0B50019563
:10019000C01BD040288121FD2DC019811F774091BF
:1001A0008900141799F4293691F400916300002313
:1001B000F1F0409171004423D1F4409363004091E9
:1001C0006F0040938900C4E6D0E02BC02227209323
:1001D00062006F914F913F910AB706FD45CF0F9195
:1001E0000FBFCF91DF912F911F910F911895C0E60E
:1001F000D0E016C0217059F320916200222339F318
:1002000040917100442399F700937100209370008E
:10021000009172004BE0401B40937200C1E6D0E0B9
:1002200001E022B32B7E206111B3146122BB11BB0C
:1002300014E130E830FF212722BB379547954C3F2A
:10024000C0F530FF2127379522BB47954C3FA8F5D5
:1002500030FF21273795000022BB47954C3F78F5AA
:1002600030FF21273795000022BB47954C3F48F5CA
:1002700030FF2127699122BB379547954C3F18F5F0
:1002800030FF2127379522BB47954C3F00F530FFC3
:1002900021273795479522BB4C3FD8F430FF2127C3
:1002A0003795362F479522BB4C3FA8F40A9512F696
:1002B00014C02127442722BBC2CF2127C5CF212725
:1002C000CBCF2127D1CF2127442722BBD7CF21272E
:1002D000DACF2127DFCF2127E5CF2B7E22BB6F91FD
:1002E0004F913F9100E40ABFDF91CF9111B3022FEC
:1002F000206122BB1B7EDFBFDF912F91000011BB6D
:1003000002BB1F910F91189585B7836085BF8BB78E
:1003100080648BBF789408958FEF87BBF5DF87E00B
:0A03200018BA88BBFDCFF894FFCF98
:02032A005AD2A5
:00000001FF
