:1000000051C084C05DC0F3C245C35AC059C058C076
:1000100057C056C055C054C053C052C051C050C044
:100020004FC04EC04DC000CDD914F13C28E5A16CA5
:1000300078B5509D89441E0355005300420074005A
:1000400069006E0079002000490052002F004C002A
:100050004300440020034400690063006B0020005B
:100060005300740072006500650066006C0061005A
:100070006E0064000403090412010101FF0000087E
:10008000EB0302000701010200010902190001014E
:100090000080280904000001FF000000070581001E
:1000A0000800000011241FBECFEDCDBF10E0A0E678
:1000B000B0E001C01D92A93BB107E1F77DD39CC31D
:1000C0009FCFDC019FEF8FEF46E2F0E018C02D914B
:1000D0008227E82FEF70E40F3591E82FE295892F02
:1000E000932F3170E327EF709295392F9F70307EF8
:1000F0008327E40F359193273170932783276A95DF
:1001000032F7809590958D939D9308950F931F934B
:100110002F93DF93CF930FB70F938299FECF8299DE
:100120000BC0829909C0829907C0829905C0829943
:1001300003C000E40ABFACC0C091A100DD27CE55CA
:10014000DF4F0BE014E124E0829BE9CF3F934F9314
:100150006F9360B330E803C060B3432B49934427E7
:1001600064712627215020B32471A9F137953C3FB3
:10017000A0F56227615060B3647137953C3F98F5F4
:1001800026272150379520B324713C3F90F56227F4
:10019000615037953C3F60B36471A0F5262721502C
:1001A00037953C3FC8F520B32471622761503795DD
:1001B0003C3FB0F50A9560B37AF064712627215070
:1001C00037953C3F88F520B32471622761503795FD
:1001D0003C3F10F22DC031C052C0612720B32471C2
:1001E0003F774160C6CF3F77426060B3647121279B
:1001F000C7CF3F774460612720B3247162276150E5
:100200003795C8CF3F7748602127316060B364716C
:10021000262721503795C6CF3F7740616127C1CF50
:100220003F7740622127C4CF3F7740646127C9CF21
:100230003F774068212700C08FCF30E43ABF0B5092
:100240000195C01BD040288121FD2DC019811F7749
:100250004091B800141799F4293691F40091910057
:100260000023F1F04091A0004423D1F44093910089
:1002700040919D004093B800C2E9D0E02BC02227F6
:10028000209360006F914F913F910AB706FD45CFD3
:100290000F910FBFCF91DF912F911F910F91189563
:1002A000CEE9D0E016C0217059F3209160002223DE
:1002B00039F34091A000442399F70093A0002093C4
:1002C0009F000091A1004BE0401B4093A100C0E9BA
:1002D000D0E001E022B32B7E206111B3146122BB78
:1002E00011BB14E130E830FF212722BB3795479539
:1002F0004C3FC0F530FF2127379522BB47954C3F37
:10030000A8F530FF21273795000022BB47954C3FC9
:1003100078F530FF21273795000022BB47954C3FE9
:1003200048F530FF2127699122BB379547954C3F0F
:1003300018F530FF2127379522BB47954C3F00F534
:1003400030FF21273795479522BB4C3FD8F430FF2B
:1003500021273795362F479522BB4C3FA8F40A95A5
:1003600012F614C02127442722BBC2CF2127C5CFB4
:100370002127CBCF2127D1CF2127442722BBD7CF7D
:100380002127DACF2127DFCF2127E5CF2B7E22BB04
:100390006F914F913F9100E40ABFDF91CF9111B36C
:1003A000022F206122BB1B7EDFBFDF912F91000057
:1003B00011BB02BB1F910F91189585B7836085BF54
:1003C0008BB780648BBF8D9A939A8B9A82ED8093C2
:1003D00090008AE580939E00789408951F93CF93B0
:1003E000DF936091A000662309F476C08091A1009C
:1003F000CCE0D0E0C81BD109CE55DF4F81E080931F
:10040000610080919F008D3209F058C01E818F815C
:1004100081111FEF8881807661F58981811104C087
:100420001882198282E042C0853029F48A81809343
:100430009D00959A3AC0863091F482E080936100E5
:100440008B818130F1F0823001F1833071F58A8146
:100450008823F9F0813009F1823019F126C0883003
:1004600019F481E0888322C08A30F9F4188281E08F
:100470001DC0CE013CD18F3FC9F483E08093610061
:1004800017C082E1C8E7D0E011C089E1CAE8D0E036
:100490000DC084E0C4E7D0E009C080E2C4E5D0E04C
:1004A00005C08EE1C6E3D0E001C080E0811708F00E
:1004B000812FD0936300C093620005C0635011F098
:1004C000CE0162D180E08093640083EC809392003F
:1004D000109291001092A0008091910081114CC067
:1004E00080916100882309F447C09091920028E828
:1004F00092279093920010916400193018F4112300
:1005000079F101C018E0833031F4612F83E990E084
:1005100015D1182F20C0E0916200F0916300813066
:1005200061F4EF01A3E9B0E09A2F89918D93FE0168
:100530008A2F891B8117C8F30AC0A3E9B0E08A2F6C
:10054000949131969D939A2F981B9117C8F3F0932D
:100550006300E093620080916400811B80936400DB
:10056000612F83E990E0ADDD812F8D5F8093910055
:10057000183010F4109261008AE002C0815019F026
:10058000849BFCCF05C010929D001092B8009598F6
:10059000DF91CF911F91089598B3907F982B98BBCE
:1005A000C69A8FE787BBC69880E787BB0895CF932D
:1005B000C82F80E228B388BBC69A00C096B328BB78
:1005C00028B388BBC69A00C036B328BB93FDF2CFD0
:1005D0008C2F82958F70E0DF8C2F8F70CF91DCCFC6
:1005E00090EF00C09A95E9F78A95D1F708951F9288
:1005F0000F920FB60F9211242F938F939F93EF9327
:10060000FF9319BE78948EB590E489278EBD84B58A
:1006100095B5E0916500F09166008F939F93805CA3
:100620009F4F8E1B9F0B880F892F881F990B9195C9
:10063000282F9F918F9190936600809365008A5731
:10064000924C9BBD8ABDF894809167008F3F99F0D2
:10065000853208F08051909168009F3F49F41092D4
:100660006900882329F0E82FF0E0E759FF4F228343
:100670008F5F809367007894959A88E4F89489BF97
:10068000FF91EF919F918F912F910F900FBE0F903F
:100690001F9018951F920F920FB60F9211248F93EF
:1006A0009F9319BE78949598F89490916700892F3C
:1006B00084508B3F60F4809168008F3F41F48091BB
:1006C0006A008F5F80936A00915090936900109246
:1006D000670078948EB58F7B8EBDF89488E489BFCF
:1006E0009F918F910F900FBE0F901F901895FC0156
:1006F0008181882309F1813031F4109269008FEFF4
:100700008093680017C0823071F4F894809169007A
:10071000882329F08281809368008FEF02C01082C5
:1007200081E078940895843111F4C49803C0853130
:1007300009F4C49A80E0089588E008952091690042
:100740002D5F30916800DC0180E017C0E21778F07F
:10075000E0936800F89490916700992319F09FEF57
:10076000909367009FEF9093680078940895F0E06D
:10077000E759FF4F90819D938F5FE82FE30F86131A
:10078000E5CFE093680008950F931F93CF93DF9315
:100790001F92CDB7DD278C0107C0F80181918F0131
:1007A000698305DF698161506111F7CF0F90DF9197
:1007B000CF911F910F9108958FED8DBF8FEF809393
:1007C000680080E787BB18BA83E0E6DE09DF83E0D4
:1007D000E3DE06DF82E3EBDE88E2E9DE81E0E7DEEE
:1007E00086E0E5DE8CE0E3DE8D9A82E88EBD88E46B
:0C07F00089BFE3DDF3DDFECFF894FFCFFE
:00000001FF
