:1000000041C07BC058C057C056C055C054C053C033
:1000100052C051C050C04FC04EC04DC04CC04BC06C
:100020004AC049C048C000CDD914F13C28E5A16CB4
:1000300078B5509D89441E0355005300420074005A
:1000400069006E0079002000490052002F004C002A
:100050004300440012010101FF000008EB0302000D
:1000600004010002000109021900010100802809B1
:1000700004000001FF0000000705810008000004E3
:100080000309040011241FBECFEDCDBF10E0A0E690
:10009000B0E0EAEDF5E002C005900D92A236B1079E
:1000A000D9F710E0A2E6B0E001C01D92AE38B1076A
:1000B000E1F78CD290C2A4CFDC019FEF8FEF660FE7
:1000C000B9F046E2F0E0229560FF2D91E82FE2279B
:1000D000EF70929582958F70392F307F832B9F70B0
:1000E000E40F359193273170932783276A9559F749
:1000F000809590958D939D9308950F931F932F93C3
:10010000DF93CF930FB70F938299FECF82990BC0E5
:10011000829909C0829907C0829905C0829903C05B
:1001200000E40ABFA8C0C0917600DD27C958DF4FA0
:100130000BE014E124E0829BE9CF3F934F936F9350
:1001400060B330E803C060B3432B49934427647124
:100150002627215020B32471A9F137953C3FA0F503
:100160006227615060B3647137953C3F98F526274C
:100170002150379520B324713C3F90F562276150A0
:1001800037953C3F60B36471A0F526272150379521
:100190003C3FC8F520B324716227615037953C3F3E
:1001A000B0F50A9560B37AF064712627215037952F
:1001B0003C3F88F520B324716227615037953C3F5E
:1001C00010F22DC031C048C0612720B324713F77A1
:1001D0004160C6CF3F77426060B364712127C7CFCB
:1001E0003F774460612720B32471622761503795BF
:1001F000C8CF3F7748602127316060B364712627FC
:1002000021503795C6CF3F7740616127C1CF3F77F7
:1002100040622127C4CF3F7740646127C9CF3F7731
:100220004068212700C08FCF30E43ABF0B500195C2
:10023000033090F0C01B2881233CB1F12B34A1F195
:1002400019811F7740918D00141731F42936D9F0A8
:100250002D3249F0213E39F04427409362006F91DE
:100260004F913F9108C0209362006F914F913F9151
:100270000AB706FD49CF0F910FBFCF91DF912F91A4
:100280001F910F91189500916700002311F1409183
:1002900075004423F1F4409367004091730040934C
:1002A0008D00C8E6D0E018C0209162002223A1F2A0
:1002B00040917500442369F4009375002093740005
:1002C000009176004BE0401B40937600C0E6D0E002
:1002D00002C0C1E6D0E001E022B32B7E206111B361
:1002E000146122BB11BB14E130E830FF212722BB8F
:1002F000379547954C3FC0F530FF2127379522BBF6
:1003000047954C3FA8F530FF21273795000022BBC9
:1003100047954C3F78F530FF21273795000022BBE9
:1003200047954C3F48F530FF2127699122BB37950F
:1003300047954C3F18F530FF2127379522BB47954D
:100340004C3F00F530FF21273795479522BB4C3FA6
:10035000D8F430FF21273795362F479522BB4C3FE5
:10036000A8F40A9512F614C02127442722BBC2CF55
:100370002127C5CF2127CBCF2127D1CF2127442724
:1003800022BBD7CF2127DACF2127DFCF2127E5CF07
:100390002B7E22BB6F914F913F9100E40ABFDF910A
:1003A000CF9111B3022F206122BB1B7EDFBFDF91F3
:1003B0002F91000011BB02BB1F910F91189585B7BB
:1003C000836085BF8BB780648BBF789408951F933B
:1003D000CF93DF9360917500662309F470C080911C
:1003E0007600CCE0D0E0C81BD109C958DF4F81E0CE
:1003F00080936300809174008D3209F052C01E8199
:100400008F8181111FEF88818076D9F589818823BA
:1004100021F41882198292E03CC0853021F48A814F
:1004200080937300ABC0863009F582E0809363004F
:100430008B81813021F492E1C4E5D0E02AC0823082
:1004400021F499E1C6E6D0E024C0833009F096C0DB
:100450008A81882321F494E0CFE7D0E01AC082306B
:1004600009F08CC09EE1C6E3D0E013C0883019F4D7
:1004700081E0888304C08A3009F080C0188291E04E
:1004800008C0CE0181D0982F8F3F19F483E080936C
:100490006300191708F0192FD0936600C093650008
:1004A00005C0635011F0CE018AD010E010936400B3
:1004B00083EC809368001092670010927500809121
:1004C0006700882309F04EC020916300222309F4BD
:1004D00049C08091680098E889278093680010914E
:1004E0006400193010F018E002C0112379F12330B4
:1004F00031F489E690E0612F58D0182F22C0309156
:10050000650040916600213061F4832F942FFC0137
:10051000A9E6B0E081918D938E2F831B8117D0F3D4
:100520000CC0832F942FFC01A9E6B0E08491319692
:100530008D938E2F831B8117C8F3F0936600E09391
:10054000650080916400811B8093640089E690E0DF
:10055000612FB2DD1D5F109367001350183010F447
:10056000109263008AE002C0815019F0849BFCCF96
:1005700007C01092730010928D0002C090E08BCFE4
:10058000DF91CF911F910895FC018181882311F49F
:1005900088E00895823011F48FEF0895833011F0D0
:1005A00080E0089518BA80E00895FC0181818230CE
:1005B00011F080E0089588B3808381E00895FC0104
:1005C0008181813011F4808188BB08958FEF87BBD2
:0A05D000F6DEFDDEFECFF894FFCF4B
:0205DA00D25AF3
:00000001FF
