:1000000032C065C049C048C047C046C045C044C0B2
:1000100043C042C041C040C03FC03EC03DC03CC0E4
:100020003BC03AC039C01803550053004200740069
:1000300069006E0079002000530050004900120151
:100040000101FF00000881179F0C0401000200015C
:100050000902120001010080320904000000FF00C3
:1000600000000403090411241FBECFEDCDBF10E032
:10007000A0E6B0E0E2EDF7E002C005900D92A236F6
:10008000B107D9F710E0A2E6B0E001C01D92AE3989
:10009000B107E1F797D39BC3B3CFDC019FEF8FEF9D
:1000A000662381F040EA31E02D910894279508F409
:1000B00083279695879510F4942783272695B9F77B
:1000C0006A9591F7809590958D939D9308950F93E0
:1000D0001F932F93DF93CF930FB70F938299FECF88
:1000E00082990BC0829909C0829907C0829905C084
:1000F000829903C000E40ABFA8C0C0918600DD2732
:10010000C957DF4F0BE014E124E0829BE9CF3F9316
:100110004F936F9360B330E803C060B3432B4993B0
:10012000442764712627215020B32471A9F1379503
:100130003C3FA0F56227615060B3647137953C3F46
:1001400098F526272150379520B324713C3F90F530
:100150006227615037953C3F60B36471A0F5262754
:10016000215037953C3FC8F520B324716227615078
:1001700037953C3FB0F50A9560B37AF06471262755
:10018000215037953C3F88F520B324716227615098
:1001900037953C3F10F22DC031C048C0612720B3D5
:1001A00024713F774160C6CF3F77426060B364718E
:1001B0002127C7CF3F774460612720B3247162278E
:1001C00061503795C8CF3F7748602127316060B3D1
:1001D0006471262721503795C6CF3F77406161274C
:1001E000C1CF3F7740622127C4CF3F77406461276A
:1001F000C9CF3F774068212700C08FCF30E43ABF96
:100200000B500195033090F0C01B2881233CB1F1C5
:100210002B34A1F119811F7740919D00141731F4FF
:100220002936D9F02D3249F0213E39F04427409348
:1002300062006F914F913F9108C0209362006F91CF
:100240004F913F910AB706FD49CF0F910FBFCF9154
:10025000DF912F911F910F91189500917700002346
:1002600011F1409185004423F1F4409377004091CF
:10027000830040939D00C8E7D0E018C02091620041
:100280002223A1F240918500442369F40093850064
:1002900020938400009186004BE0401B4093860031
:1002A000C0E6D0E002C0C1E6D0E001E022B32B7E80
:1002B000206111B3146122BB11BB14E130E830FF9F
:1002C000212722BB379547954C3FC0F530FF2127AA
:1002D000379522BB47954C3FA8F530FF212737952E
:1002E000000022BB47954C3F78F530FF212737951A
:1002F000000022BB47954C3F48F530FF212769910C
:1003000022BB379547954C3F18F530FF212737958D
:1003100022BB47954C3F00F530FF21273795479585
:1003200022BB4C3FD8F430FF21273795362F479515
:1003300022BB4C3FA8F40A9512F614C0212744278B
:1003400022BBC2CF2127C5CF2127CBCF2127D1CF99
:100350002127442722BBD7CF2127DACF2127DFCF80
:100360002127E5CF2B7E22BB6F914F913F9100E477
:100370000ABFDF91CF9111B3022F206122BB1B7EF8
:10038000DFBFDF912F91000011BB02BB1F910F91C6
:10039000189585B7836085BF8BB780648BBF7894D1
:1003A00008951F93CF93DF9360918500662309F42E
:1003B00070C080918600CCE0D0E0C81BD109C9573D
:1003C000DF4F81E080936300809184008D3209F0DB
:1003D00052C01E818F8181111FEF88818076D9F5EF
:1003E0008981882321F41882198292E03CC08530EB
:1003F00021F48A8180938300ABC0863009F582E0C6
:10040000809363008B81813021F492E1CEE3D0E0D0
:100410002AC0823021F492E1C0E5D0E024C08330CC
:1004200009F096C08A81882321F494E0C2E6D0E0E6
:100430001AC0823009F08CC098E1C6E2D0E013C047
:10044000883019F481E0888304C08A3009F080C0C4
:10045000188291E008C0CE01D3D0982F8F3F19F4B5
:1004600083E080936300191708F0192FD09366007A
:10047000C093650005C0635011F0CE014BD110E070
:100480001093640083EC80937800109277001092B0
:10049000850080917700882309F04EC02091630089
:1004A000222309F449C08091780098E88927809335
:1004B000780010916400193010F018E002C0112388
:1004C00079F1233031F489E790E0612F0ED1182FB4
:1004D00022C03091650040916600213061F4832F85
:1004E000942FFC01A9E7B0E081918D938E2F831B9F
:1004F0008117D0F30CC0832F942FFC01A9E7B0E043
:10050000849131968D938E2F831B8117C8F3F093BE
:100510006600E093650080916400811B8093640015
:1005200089E790E0612FB9DD1D5F109377001350CC
:10053000183010F4109263008AE002C0815019F064
:10054000849BFCCF07C01092830010929D0002C0D4
:1005500090E08BCFDF91CF911F910895DC01FB01DB
:100560006091670050E07D9190E040E820E030E04D
:10057000842F872309F0C79A062E00C000000A9432
:10058000E1F7C69A062E00C000000A94E1F7990F21
:1005900083999F5FC798C69846952F5F3F4F283035
:1005A000310531F790835F5F543011F03196DBCF26
:1005B000089520916A0030916B002F5F3F4F309378
:1005C0006B0020936A002150304080916E0087FFBD
:1005D00002C0220F331F80936F0020FF03C088608A
:1005E00080936F00832F86958093700036952795B2
:1005F000209371008FE690E063E770E0AFDF08952D
:10060000FC013181332311F488E008955481A52F32
:10061000B0E0313021F48C91808381E00895323054
:1006200011F4828112C0BC016E5F7F4F4281242F82
:10063000277081E090E0982F01C0990F2A95EAF782
:10064000333029F490958C9189238C934AC03430AF
:1006500019F48C91892BF9CF353059F44093670008
:10066000552311F09FE201C09FE08FEF87BB98BB3D
:1006700038C0363021F4C59A18BA17BA32C088B3D8
:10068000882389F1373029F4CB01BF0167DF84E08B
:100690000895383031F44093680083818093690075
:1006A00020C08481958190936B0080936A003930DB
:1006B00011F480E203C03B3029F480EA80936E009D
:1006C0008FEF08958281938190936D0080936C00E9
:1006D0003A3011F480E403C03C3029F480EC80937C
:1006E0006E0080E0089580E008950F931F93CF93EC
:1006F000DF93062FEC0110E005C05BDF80917600F0
:1007000089931F5F1017C8F3802FDF91CF911F913E
:100710000F9108957F928F929F92AF92BF92CF9246
:10072000DF92EF92FF920F931F93CF93DF93862E6A
:10073000A0906C00B0906D0090906800C09069002F
:1007400020916700E22EFF2435E0EE0CFF1C3A9565
:10075000E1F78C01DD2420E6722E24C0F8018081AF
:100760008093720026DF80916F00872580936F0051
:10077000C0E0D0E011C08FE690E063E770E0EEDE0D
:100780009091760080917200981721F4991511F0DC
:100790009C1529F4CE0DDF1DCA15DB0560F3D3943B
:1007A0000F5F1F4FD814D0F2DF91CF911F910F919F
:1007B000FF90EF90DF90CF90BF90AF909F908F9081
:1007C0007F90089583E481BBE4DDEBDDFECFF894F8
:0207D000FFCF59
:0207D200D25AF9
:00000001FF
