:100000004AC07DC056C055C054C053C052C051C034
:1000100050C04FC04EC04DC04CC04BC04AC049C07C
:1000200048C047C046C000CDD914F13C28E5A16CBA
:1000300078B5509D89441803550053004200740060
:1000400069006E0079002000530050004900200331
:100050004400690063006B002000530074007200CC
:100060006500650066006C0061006E0064000403BA
:10007000090412010101FF00000881179F0C07010C
:10008000010200010902120001010080320904008E
:100090000000FF00000011241FBECFEDCDBF10E017
:1000A000A0E6B0E001C01D92AE39B107E1F799D3E7
:1000B0009BC3A6CFDC019FEF8FEF46E2F0E018C0B4
:1000C0002D918227E82FEF70E40F3591E82FE2950C
:1000D000892F932F3170E327EF709295392F9F70FE
:1000E000307E8327E40F3591932731709327832740
:1000F0006A9532F7809590958D939D9308950F930F
:100100001F932F93DF93CF930FB70F938299FECF57
:1001100082990BC0829909C0829907C0829905C053
:10012000829903C000E40ABFACC0C0918600DD27FD
:10013000C957DF4F0BE014E124E0829BE9CF3F93E6
:100140004F936F9360B330E803C060B3432B499380
:10015000442764712627215020B32471A9F13795D3
:100160003C3FA0F56227615060B3647137953C3F16
:1001700098F526272150379520B324713C3F90F500
:100180006227615037953C3F60B36471A0F5262724
:10019000215037953C3FC8F520B324716227615048
:1001A00037953C3FB0F50A9560B37AF06471262725
:1001B000215037953C3F88F520B324716227615068
:1001C00037953C3F10F22DC031C052C0612720B39B
:1001D00024713F774160C6CF3F77426060B364715E
:1001E0002127C7CF3F774460612720B3247162275E
:1001F00061503795C8CF3F7748602127316060B3A1
:100200006471262721503795C6CF3F77406161271B
:10021000C1CF3F7740622127C4CF3F774064612739
:10022000C9CF3F774068212700C08FCF30E43ABF65
:100230000B500195C01BD040288121FD2DC0198194
:100240001F7740919D00141799F4293691F400917D
:1002500076000023F1F0409185004423D1F44093CF
:1002600076004091820040939D00C7E7D0E02BC00C
:100270002227209360006F914F913F910AB706FDAE
:1002800045CF0F910FBFCF91DF912F911F910F910C
:100290001895C3E8D0E016C0217059F32091600092
:1002A000222339F340918500442399F70093850078
:1002B00020938400009186004BE0401B4093860011
:1002C000C5E7D0E001E022B32B7E206111B31461B9
:1002D00022BB11BB14E130E830FF212722BB379548
:1002E00047954C3FC0F530FF2127379522BB4795F6
:1002F0004C3FA8F530FF21273795000022BB4795DA
:100300004C3F78F530FF21273795000022BB4795F9
:100310004C3F48F530FF2127699122BB379547951F
:100320004C3F18F530FF2127379522BB47954C3FAE
:1003300000F530FF21273795479522BB4C3FD8F475
:1003400030FF21273795362F479522BB4C3FA8F425
:100350000A9512F614C02127442722BBC2CF2127B9
:10036000C5CF2127CBCF2127D1CF2127442722BB9F
:10037000D7CF2127DACF2127DFCF2127E5CF2B7E4B
:1003800022BB6F914F913F9100E40ABFDF91CF9163
:1003900011B3022F206122BB1B7EDFBFDF912F91A3
:1003A000000011BB02BB1F910F91189585B78360A8
:1003B00085BF8BB780648BBF82ED809375008AE523
:1003C00080938300789408951F93CF93DF93609177
:1003D0008500662309F475C080918600CCE0D0E0EA
:1003E000C81BD109C957DF4F81E08093610080911C
:1003F00084008D3209F057C01E818F8181111FEF5B
:100400008881807659F58981811104C0188219820A
:1004100082E041C0853021F48A81809382003AC015
:10042000863091F482E0809361008B818130F1F01D
:10043000823001F1833071F58A818823F9F08130AF
:1004400009F1823019F126C0883019F481E08883DF
:1004500022C08A30F9F4188281E01DC0CE01E2D0BA
:100460008F3FC9F483E08093610017C082E1C2E747
:10047000D0E011C082E1C4E8D0E00DC084E0CEE657
:10048000D0E009C080E2CEE4D0E005C088E1C6E358
:10049000D0E001C080E0811708F0812FD093630085
:1004A000C093620005C0635011F0CE014FD180E0CF
:1004B0008093640083EC8093770010927600109212
:1004C00085008091760081114CC080916100882365
:1004D00009F447C09091770028E89227909377001D
:1004E00010916400193018F4112379F101C018E05B
:1004F000833031F4612F88E790E007D1182F20C0B6
:10050000E0916200F0916300813061F4EF01A8E7AF
:10051000B0E09A2F89918D93FE018A2F891B811754
:10052000C8F30AC0A8E7B0E08A2F949131969D9352
:100530009A2F981B9117C8F3F0936300E093620021
:1005400080916400811B80936400612F88E790E0B4
:10055000B1DD812F8D5F80937600183010F41092FA
:1005600061008AE002C0815019F0849BFCCF04C076
:100570001092820010929D00DF91CF911F910895FB
:10058000AC014C5F5F4FFC01A191CF0128E030E04E
:10059000F0E8E0E0BF2FBA2309F0C79AB0916500F8
:1005A0000B2E00C000000A94E1F7C69AB0916500D6
:1005B0000B2E00C000000A94E1F7EE0F8399EF5F65
:1005C000C798C698F6952150310921F7DB01ED93C4
:1005D000BD0184179507B9F6089580916800909140
:1005E00069009C012F5F3F4F3093690020936800A2
:1005F00020916A0027FF02C0880F991F80FF01C069
:100600002860209371009C01232F33272695209387
:10061000720096958795809373006DE670E081E790
:1006200090E0AECFFC012181222309F46CC044810B
:10063000A42FB0E0213021F48C91808381E00895D3
:100640003281223011F43C935CC0532F577081E00B
:1006500090E0052E01C0880F0A94EAF7233021F4B8
:1006600080959C91982304C0243021F49C91982B70
:100670009C9347C0253059F430936500411102C066
:100680008FE001C08FE29FEF97BB88BB3AC0263056
:1006900021F4C59A18BA17BA34C088B3811101C0C1
:1006A00030C0273031F4BF01CF01029669DF84E00A
:1006B0000895283031F43093660083818093670079
:1006C00020C08481958190936900809368002930CF
:1006D00011F480E203C02B3029F480EA80936A0091
:1006E0008FEF08958281938190936C0080936B00CB
:1006F0002A3011F480E403C02C3019F480EC80938C
:100700006A0080E0089588E00895EF92FF920F93C9
:100710001F93CF93DF931F92CDB7DD278C01862FD8
:10072000780108C0898359DF90917000F701919397
:100730007F0189819E2D901B9817A0F30F90DF9168
:10074000CF911F910F91FF90EF900895CF92DF927C
:10075000EF92FF920F931F93CF93DF937C01D62EDE
:10076000EC01E0E6CE2E30C089918093740035DF35
:10077000809171008C258093710000E010E01DC015
:100780006DE670E081E790E0FBDE80917000909173
:100790007400891308C090916600891721F0909128
:1007A0006700891311C02091650030E075E0220FC9
:1007B000331F7A95E1F7020F131F80916B00909120
:1007C0006C0008171907E0F28C2F8E198D1560F256
:1007D000DF91CF911F910F91FF90EF90DF90CF901D
:0C07E0000895E4DDF1DDFECFF894FFCFBA
:00000001FF
