:1000000039C06CC045C044C043C042C041C040C0BC
:100010003FC03EC03DC03CC03BC03AC039C038C004
:1000200037C036C035C000CDD914F13C28E5A16CED
:1000300078B5509D89441603550053004200740062
:1000400069006E0079004900530050000403090460
:1000500012010101FF00000881179F0C0701000237
:1000600000010902120001010080320904000000B1
:10007000FF00000011241FBECFEDCDBF10E0A0E6B1
:10008000B0E001C01D92AE39B107E1F7A5D3A9C315
:10009000B7CFDC019FEF8FEF46E2F0E018C02D9163
:1000A0008227E82FEF70E40F3591E82FE295892F32
:1000B000932F3170E327EF709295392F9F70307E28
:1000C0008327E40F359193273170932783276A950F
:1000D00032F7809590958D939D9308950F931F937C
:1000E0002F93DF93CF930FB70F938299FECF82990F
:1000F0000BC0829909C0829907C0829905C0829974
:1001000003C000E40ABFACC0C0918600DD27C95718
:10011000DF4F0BE01CE024E0829BE9CF3F934F933D
:100120006F9360B330E803C060B3432B4993442717
:100130006C702627215020B32C70A9F137953C3FD5
:10014000A0F56227615060B36C7037953C3F98F51D
:1001500026272150379520B32C703C3F90F562271D
:10016000615037953C3F60B36C70A0F52627215055
:1001700037953C3FC8F520B32C7062276150379506
:100180003C3FB0F50A9560B37AF06C702627215099
:1001900037953C3F88F520B32C7062276150379526
:1001A0003C3F10F22DC031C052C0612720B32C70EB
:1001B0003F774160C6CF3F77426060B36C702127C4
:1001C000C7CF3F774460612720B32C70622761500E
:1001D0003795C8CF3F7748602127316060B36C7096
:1001E000262721503795C6CF3F7740616127C1CF81
:1001F0003F7740622127C4CF3F7740646127C9CF52
:100200003F774068212700C08FCF30E43ABF0B50C2
:100210000195C01BD040288121FD2DC019811F7779
:1002200040919D00141799F4293691F400917600BD
:100230000023F1F0409185004423D1F440937600EF
:100240004091820040939D00C7E7D0E02BC0222759
:10025000209360006F914F913F910AB706FD45CF03
:100260000F910FBFCF91DF912F911F910F91189593
:10027000C3E8D0E016C0217059F32091600022231A
:1002800039F340918500442399F70093850020932A
:100290008400009186004BE0401B40938600C5E738
:1002A000D0E001E022B3237F286011B31C6022BBA1
:1002B00011BB1CE030E830FF212722BB3795479562
:1002C0004C3FC0F530FF2127379522BB47954C3F67
:1002D000A8F530FF21273795000022BB47954C3FFA
:1002E00078F530FF21273795000022BB47954C3F1A
:1002F00048F530FF2127699122BB379547954C3F40
:1003000018F530FF2127379522BB47954C3F00F564
:1003100030FF21273795479522BB4C3FD8F430FF5B
:1003200021273795362F479522BB4C3FA8F40A95D5
:1003300012F614C02127442722BBC2CF2127C5CFE4
:100340002127CBCF2127D1CF2127442722BBD7CFAD
:100350002127DACF2127DFCF2127E5CF237F22BB3B
:100360006F914F913F9100E40ABFDF91CF9111B39C
:10037000022F286022BB137FDFBFDF912F91000087
:1003800011BB02BB1F910F91189585B7836085BF84
:100390008BB780648BBF8D9A969A8E9A82ED8093EC
:1003A00075008AE580938300789408951F93CF9316
:1003B000DF9360918500662309F470C08091860008
:1003C000CCE0D0E0C81BD109C957DF4F81E0809352
:1003D0006100809184008D3209F052C01E818F81AE
:1003E00081111FEF8881807651F58981811104C0C8
:1003F0001882198282E03CC0853029F48A8180937A
:100400008200959A34C0863081F482E08093610046
:100410008B818130E1F08230F1F0833041F58A81C7
:100420008823E9F08230F9F022C0883019F481E0A5
:1004300088831EC08A30D9F4188281E019C0CE01A9
:10044000DED08F3FA9F483E08093610013C082E186
:10045000C0E5D0E00DC082E1C2E6D0E009C084E092
:10046000CCE4D0E005C086E1C6E3D0E001C080E086
:10047000811708F0812FD0936300C093620005C0FC
:10048000635011F0CE015CD180E08093640083EC76
:10049000809377001092760010928500809176000C
:1004A00081114CC080916100882309F447C090916C
:1004B000770028E892279093770010916400193014
:1004C00018F4112379F101C018E0833031F4612F61
:1004D00088E790E014D1182F20C0E0916200F091DD
:1004E0006300813061F4EF01A8E7B0E09A2F8991B1
:1004F0008D93FE018A2F891B8117C8F30AC0A8E7D4
:10050000B0E08A2F949131969D939A2F981B911762
:10051000C8F3F0936300E093620080916400811B54
:1005200080936400612F88E790E0B3DD812F8D5FB9
:1005300080937600183010F4109261008AE002C0B7
:10054000815019F0839BFCCF05C01092820010925D
:100550009D009598DF91CF911F91089527C041503C
:10056000DC01FD91CD0128E030E0E0E850E0AE2F65
:10057000AF2309F0C59AA09165000A2E00C00000C3
:100580000A94E1F7C79AA09165000A2E00C0000006
:100590000A94E1F7550FB6995F5FC598C798E6953D
:1005A0002150310921F7FB015193BF014111D7CFF0
:1005B000089580916800909169009C012F5F3F4FE2
:1005C000309369002093680020916A0027FF02C0E1
:1005D000880F991F80FF01C02860209371009C0143
:1005E000232F332726952093720096958795809325
:1005F000730044E06DE670E081E790E0AFCFFC016E
:100600002181222309F479C0213019F486B3808333
:1006100047C03281223011F438BB6DC0432F477080
:1006200081E090E0042E01C0880F0A94EAF723309D
:1006300021F498B38095892317C0243021F498B30E
:10064000982B98BB58C02D3011F437BB15C02530FE
:1006500069F4309365008481811102C081E001C09A
:1006600081E1949891EB97BB88BB45C0263021F47B
:1006700017BA18BA949A3FC088B3811101C03BC021
:10068000273039F444E0BF01CF01029667DF84E0F0
:1006900008952E3039F441E0BF01CF0102965EDFAC
:1006A00081E00895283039F4828180936600838147
:1006B0008093670020C08481958190936900809326
:1006C0006800293011F480E203C02B3029F480EA5D
:1006D00080936A008FEF08958281938190936C00DC
:1006E00080936B002A3011F480E403C02C3019F49D
:1006F00080EC80936A0080E0089588E00895EF928E
:10070000FF920F931F93CF93DF931F92CDB7DD27F7
:100710008C01862F780108C089834BDF909170008F
:10072000F70191937F0189819E2D901B9817A0F36B
:100730000F90DF91CF911F910F91FF90EF9008954F
:10074000CF92DF92EF92FF920F931F93CF93DF939D
:100750007C01D62EEC01E0E6CE2E31C0899180934B
:10076000740027DF809171008C258093710000E078
:1007700010E01EC044E06DE670E081E790E0EEDE40
:100780008091700090917400891308C09091660068
:10079000891721F090916700891311C0209165009D
:1007A00030E075E0220F331F7A95E1F7020F131F37
:1007B00080916B0090916C0008171907D8F28C2F6C
:1007C0008E198D1558F2DF91CF911F910F91FF90E7
:1007D000EF90DF90CF900895949A8C9AD6DDE6DD65
:0607E000FECFF894FFCFEC
:00000001FF
