:1000000037C06BC14FC04EC04DC04CC04BC04AC082
:1000100049C048C047C009021200010100C00A09D6
:10002000040000000000000012011001FF000008A1
:10003000C016DC05000101020001180350006F002A
:100040007700650072005300770069007400630058
:1000500068001A037700770077002E006F006200B7
:100060006400650076002E0061007400040309043A
:1000700011241FBECFEDCDBF10E0A0E6B0E0EAEC4A
:10008000F6E003C0C89531960D92A236B107D1F7BC
:1000900010E0A2E6B0E001C01D92A839B107E1F777
:1000A000BBD211C3ADCFCF93DF9380917E0083503D
:1000B00087FD9AC020917B0090917A009D3209F0D3
:1000C00091C0883009F08EC08CE090E0821B9109CD
:1000D000C82FD92FCE57DF4F23EC20936E002AE58F
:1000E00020936000109262004881242F207621F036
:1000F0008C2F9D2F40D26DC03A81109277002981BC
:10010000222359F44F7119F481E080937700109203
:10011000780027E730E082E058C0253019F43093AA
:100120007F0049C02630F1F5E82FF92FEC57FF4F3B
:1001300020818B579F4FE82FF92F8081813019F450
:1001400088E290E004C0823041F486E190E0909330
:100150007D0080937C0082E121C08330F1F4222372
:1001600041F48CE690E090937D0080937C0084E0E5
:1001700015C0213041F482E590E090937D0080939A
:100180007C008AE10BC0223041F48AE390E0909336
:100190007D0080937C0088E101C080E090E4909332
:1001A000620017C0283059F0293019F430938100CB
:1001B00002C02A3039F027E730E080E006C021E8AD
:1001C00030E002C027E730E081E030937D002093EB
:1001D0007C009F81992321F49E81981708F4892F30
:1001E0008093610010927E008091600084FF48C07F
:1001F000809161008F3F09F443C0C82F893008F017
:10020000C8E08C1B8093610080916E0098E889277C
:1002100080936E00CC2341F180917C0090917D0011
:100220002091620026FF0CC0E82FF92F2C2FAFE69B
:10023000B0E0C895302D3D9331962150D1F709C0DB
:10024000A82FB92F2C2FEFE6F0E03D9131932150EC
:10025000E1F72C2F215030E02F5F3F4F280F391F3F
:1002600030937D0020937C008FE690E06C2F31D09E
:10027000CC5FCC3019F08FEF80936100C0936000A9
:1002800084E196B3937031F48150D9F710927F00D6
:1002900010927900DF91CF91089585B7826085BF74
:1002A0008BB780648BBF0895A82FB92F80E090E0B2
:1002B00041E050EA609530E009C02D918227979582
:1002C000879510F084279527305EC8F36F5FA8F3F9
:1002D0000895EADF8D939D930895CF93CFB7CF9381
:1002E000C395B09BE9F7B09B09C0B09B07C0B09B1A
:1002F00005C0B09B03C0B09B01C0A1C0DF93C091FB
:100300007B00DD27CE57DF4FB09B02C0DF91EBCFE4
:100310002F930F931F9306B32FEF00FB20F94F93FA
:100320003F9316B34FEF012700FB21F93BE031C0AB
:100330004E7F012F16B3216028C0102F4D7F226001
:10034000000006B329C04B7F2460012F000016B3C4
:100350002BC016B3477F28602AC04F7E06B32061AA
:100360002CC04F7D16B320622FC04F7B06B3206494
:1003700032C0422706B349934FEF0000102710FB0D
:1003800020F916B31370C9F1297F91F2012700FB00
:1003900021F906B3237F89F2315058F1102710FB61
:1003A00022F916B3277E79F2012700FB23F92F7C6F
:1003B00081F206B3102710FB24F92F7971F200C0E7
:1003C00016B3012700FB25F92F7359F200C006B3BD
:1003D000102710FB26F9223040F200C016B3012787
:1003E00000FB27F9243028F64F77206816B3000069
:1003F000F9CF10E41ABF002717C03B503195C31B3B
:10040000D04010E41ABF0881033CE9F00B34D9F066
:10041000209179001981110F1213EDCF093641F1A6
:100420000D3211F0013E39F7009380003F914F915A
:100430001F910F912F91DF91CAB7C6FD51CFCF9178
:10044000CFBFCF91189520918000222379F310918E
:100450007E00112311F5343012F130937E00209389
:100460007A0010917B003BE0311B30937B0017C07A
:1004700000917E0001308CF40AE53091600034FD7B
:1004800010C000936000CEE6D0E00FC02795A8F41E
:100490005150A9F4220F0000F9CF4AE503C042ED04
:1004A00001C0432FC4E1D0E032E017B31360C09A1B
:1004B00017BB08B320E413E05F93012756E008BBA5
:1004C000279520F4515021F4220FF9CF012756E04F
:1004D00000003B5A08BBD0F2279528F4515029F46C
:1004E000220F0000F9CF012756E0279508BB20F422
:1004F000515021F4220FF9CF012756E029913323DF
:1005000008BB21F60C7F10917F00110FC651D0401F
:1005100008BB11F01093790010E41ABF016017B303
:100520001C7F402F4C7F5F9100C000C008BB17BBF1
:1005300048BB7CCFE5E6F0E028E091E080E0319137
:100540003111892B990F2150D1F70895CF9385E26E
:1005500090E0A4D0C82FEEDFC82728B39C2F9C7F43
:100560002370922B98BB92B3C295C0739F7CC92B0A
:10057000C2BBCF910895CF93DF93C82FD92F85E2C7
:1005800090E08CD023E630E030937D0020937C0017
:100590009981992329F48A81809363008B8105C016
:1005A000913039F480936300C5DF8093640082E06A
:1005B00030C0292F2250223050F54C814770242F13
:1005C00030E061E070E001C0660F4A95EAF7482F1D
:1005D0004623923031F4682B81E0442329F080E0F7
:1005E00003C060956823842F9A81992349F42B597D
:1005F0003F4FE22FF32F108285E290E057D007C0E3
:10060000882329F02B593F4FE22FF32F90839EDF51
:1006100080E0DF91CF9108952EE088E190E00FB661
:10062000F894A89581BD0FBE21BD8BEF81BB12BA96
:1006300018BA8CEF87BB8ADFB89A80E007C0A8950C
:10064000EFE6F7E13197F1F700C000008150B9F70C
:10065000B89885E083BF21DE7894C8E0A89523DDB3
:1006600008B601FEFBCF88B7826088BF80916D001D
:10067000982F915090936D00882381F7C0936D005F
:10068000E5E6F0E088E09081992311F091509083A5
:10069000815031968823B9F759DFE0CFE199FECF39
:1006A0001FBA8EBBE09A99278DB30895262FE19942
:1006B000FECF1FBA8EBB2DBB0FB6F894E29AE19A1B
:0A06C0000FBE01960895F894FFCFD5
:0206CA005AFFD5
:00000001FF
